:100000000C9434000C9497000C94E5000C9451006F
:100010000C9451000C9451000C9451000C9451001C
:100020000C9451000C9451000C9451000C9451000C
:100030000C9451000C9451000C9451000C945100FC
:100040000C9451000C9451000C9451000C945100EC
:100050000C9451000C9451000C9451000C945100DC
:100060000C9451000C94510011241FBECFEFD8E026
:10007000DEBFCDBF11E0A0E0B1E0E8EDF4E002C0EA
:1000800005900D92A032B107D9F711E0A0E2B1E0DE
:1000900001C01D92A732B107E1F70E9433010C9411
:1000A0006A020C940000DF93CF930F92CDB7DEB7B6
:1000B0008983E0ECF0E08081882F90E0807290707E
:1000C0000097B9F3E6ECF0E0898180830F90CF913F
:1000D000DF910895DF93CF9300D000D000D0CDB74B
:1000E000DEB79C838B837E836D831A8219820FC057
:1000F00029813A818B819C81FC01E20FF31F808171
:100100000E94530089819A8101969A83898329816B
:100110003A818D819E812817390754F326960FB6B0
:10012000F894DEBF0FBECDBFCF91DF9108951F922F
:100130000F920FB60F9211242F933F934F935F931B
:100140006F937F938F939F93AF93BF93EF93FF939F
:10015000DF93CF9300D0CDB7DEB78FE090E00E9461
:100160005C019A83898380E091E09A838983898105
:100170009A810E9461029093220180932101209133
:1001800021013091220189819A81B9010E946A007E
:10019000ACE3B0E0ECE3F0E0808181608C93789494
:1001A0000F900F90CF91DF91FF91EF91BF91AF91A1
:1001B0009F918F917F916F915F914F913F912F917F
:1001C0000F900FBE0F901F9018951F920F920FB6B1
:1001D0000F9211242F933F934F935F936F937F93CD
:1001E0008F939F93AF93BF93EF93FF93DF93CF933F
:1001F00000D0CDB7DEB78FE090E00E945C019A831B
:1002000089838DE091E09A83898389819A810E9414
:10021000610290932201809321012091210130916C
:10022000220189819A81B9010E946A00ACE3B0E0A1
:10023000ECE3F0E0808182608C9378940F900F90D3
:10024000CF91DF91FF91EF91BF91AF919F918F91EE
:100250007F916F915F914F913F912F910F900FBEC2
:100260000F901F901895DF93CF93CDB7DEB7F8941A
:10027000EAE2F0E080EF8083E9E6F0E08AEA80835A
:10028000EDE3F0E08FEF8083ACE3B0E0ECE3F0E08F
:1002900080818F608C93E5ECF0E01082E4ECF0E07C
:1002A00087E68083E1ECF0E088E18083E2ECF0E037
:1002B00086E080837894FFCFCF93DF93BC018230B8
:1002C000910510F462E070E0A0912501B091260143
:1002D000ED01E0E0F0E040E050E021C0888199814C
:1002E0008617970769F48A819B81309719F0938369
:1002F000828304C09093260180932501FE0134C0BF
:100300006817790738F44115510519F084179507D6
:1003100008F4AC01FE018A819B819C01E9012097D0
:10032000E9F641155105A9F1CA01861B970B0497FF
:1003300008F4BA01E0E0F0E02AC08D919C91119799
:1003400084179507F9F46417750781F412968D9157
:100350009C911397309719F09383828304C09093F4
:10036000260180932501FD0132964FC0CA01861BEC
:10037000970BFD01E80FF91F6193719302978D931D
:100380009C9343C0FD01828193819C01D901109708
:10039000A1F68091230190912401892B41F4809151
:1003A0001C0190911D0190932401809323014091A1
:1003B0001E0150911F014115510541F44DB75EB723
:1003C00080911A0190911B01481B590B2091230128
:1003D0003091240124173507B0F4CA01821B930B16
:1003E0008617970780F0AB014E5F5F4F8417950724
:1003F00050F0420F531F5093240140932301F90101
:100400006193719302C0E0E0F0E0CF01DF91CF9102
:100410000895CF93DF93009709F450C0EC01229721
:100420001B821A82A0912501B0912601109709F133
:1004300040E050E0AC17BD0708F1BB83AA83FE0182
:1004400021913191E20FF31FAE17BF0779F48D911F
:100450009C911197280F391F2E5F3F4F39832883B6
:1004600012968D919C9113979B838A834115510518
:1004700071F4D0932601C093250120C012968D916E
:100480009C911397AD01009711F0DC01D3CFFA01D5
:10049000D383C28321913191E20FF31FCE17DF077F
:1004A00069F488819981280F391F2E5F3F4FFA0127
:1004B000318320838A819B8193838283DF91CF91D3
:1004C0000895FC0101900020E9F7809590958E0F2A
:0804D0009F1F0895F894FFCF6F
:1004D800494E5431205055534845440A00494E541A
:1004E80032205055534845440A0020002701000097
:00000001FF
