:100000000C9434000C9497000C9451000C94510003
:100010000C9451000C9451000C9451000C9451001C
:100020000C9451000C9451000C9451000C9451000C
:100030000C9451000C9451000C9451000C945100FC
:100040000C9451000C9451000C9451000C945100EC
:100050000C9451000C9451000C9451000C945100DC
:100060000C9451000C94510011241FBECFEFD8E026
:10007000DEBFCDBF11E0A0E0B1E0E6EBF4E002C0EE
:1000800005900D92A431B107D9F711E0A4E1B1E0D8
:1000900001C01D92AA39B107E1F70E94F0000C944B
:1000A00059020C940000DF93CF930F92CDB7DEB7C7
:1000B0008983E0ECF0E08081882F90E0807290707E
:1000C0000097B9F3E6ECF0E0898180830F90CF913F
:1000D000DF910895DF93CF9300D000D000D0CDB74B
:1000E000DEB79C838B837E836D831A8219820FC057
:1000F00029813A818B819C81FC01E20FF31F808171
:100100000E94530089819A8101969A83898329816B
:100110003A818D819E812817390754F326960FB6B0
:10012000F894DEBF0FBECDBFCF91DF9108951F922F
:100130000F920FB60F9211242F933F934F935F931B
:100140006F937F938F939F93AF93BF93EF93FF939F
:10015000DF93CF9300D0CDB7DEB78EE190E00E9461
:1001600035019A83898389819A8160E070E04EE14C
:1001700050E00E943A0280E091E09A83898389816D
:100180009A810E94410290931501809314018091FD
:10019000140190911501AC0186E191E029813A8129
:1001A000B9010E944A02ACE3B0E0ECE3F0E08081E8
:1001B00081608C9378940F900F90CF91DF91FF9195
:1001C000EF91BF91AF919F918F917F916F915F91CF
:1001D0004F913F912F910F900FBE0F901F90189548
:1001E000DF93CF93CDB7DEB7F894EAE2F0E080EF8B
:1001F0008083E9E6F0E08AEA8083EDE3F0E08FE0D7
:100200008083ACE3B0E0ECE3F0E080818F608C931E
:10021000E5ECF0E01082E4ECF0E087E68083E1ECCE
:10022000F0E088E18083E2ECF0E086E0808378947F
:10023000809114019091150118161906CCF72091A0
:1002400014013091150186E191E0B9010E946A0024
:1002500086E191E060E070E040E850E00E943A0200
:100260001092150110921401E3CFCF93DF93BC01DC
:100270008230910510F462E070E0A0919801B09195
:100280009901ED01E0E0F0E040E050E021C088811C
:1002900099818617970769F48A819B81309719F0B5
:1002A0009383828304C09093990180939801FE0107
:1002B00034C06817790738F44115510519F08417CF
:1002C000950708F4AC01FE018A819B819C01E9013C
:1002D0002097E9F641155105A9F1CA01861B970B34
:1002E000049708F4BA01E0E0F0E02AC08D919C91F7
:1002F000119784179507F9F46417750781F412961E
:100300008D919C911397309719F09383828304C049
:100310009093990180939801FD0132964FC0CA01D4
:10032000861B970BFD01E80FF91F619371930297EC
:100330008D939C9343C0FD01828193819C01D901DF
:100340001097A1F68091960190919701892B41F425
:1003500080910F01909110019093970180939601E5
:1003600040911101509112014115510541F44DB7D1
:100370005EB780910D0190910E01481B590B2091A1
:1003800096013091970124173507B0F4CA01821BFA
:10039000930B8617970780F0AB014E5F5F4F841772
:1003A000950750F0420F531F5093970140939601C9
:1003B000F9016193719302C0E0E0F0E0CF01DF91B9
:1003C000CF910895CF93DF93009709F450C0EC01CB
:1003D00022971B821A82A0919801B09199011097DF
:1003E00009F140E050E0AC17BD0708F1BB83AA83D8
:1003F000FE0121913191E20FF31FAE17BF0779F48F
:100400008D919C911197280F391F2E5F3F4F398393
:10041000288312968D919C9113979B838A83411513
:10042000510571F4D0939901C093980120C01296A0
:100430008D919C911397AD01009711F0DC01D3CF02
:10044000FA01D383C28321913191E20FF31FCE17BA
:10045000DF0769F488819981280F391F2E5F3F4F8C
:10046000FA01318320838A819B8193838283DF9188
:10047000CF910895DC0101C06D9341505040E0F7E9
:100480000895FC0101900020E9F7809590958E0F6A
:100490009F1F0895FB01DC014150504048F001903E
:1004A0000D920020C9F701C01D9241505040E0F765
:0604B0000895F894FFCF4F
:1004B600494E5431205055534845440A0020009A6D
:0404C6000100000031
:00000001FF
