:100000000C9434000C943E000C943E000C943E0082
:100010000C943E000C943E000C943E000C943E0068
:100020000C943E000C943E000C943E000C943E0058
:100030000C943E000C943E000C943E000C943E0048
:100040000C943E000C943E000C943E000C943E0038
:100050000C943E000C943E000C943E000C943E0028
:100060000C943E000C943E0011241FBECFEFD8E04C
:10007000DEBFCDBF0E943E010C9441010C940000F4
:100080008FEF8AB920E030E07AEA40E951E065E597
:100090007BB988E893E1FA013197F1F70197D9F735
:1000A0006BB988E893E1FA013197F1F70197D9F735
:1000B0002F5F3F4F2330310559F720E030E070EFDC
:1000C00040E951E06FE07BB988E893E1FA013197AC
:1000D000F1F70197D9F76BB988E893E1FA01319705
:1000E000F1F70197D9F72F5F3F4F2430310559F7CA
:1000F00020E030E073EC40E951E06CE37BB988E844
:1001000093E1FA013197F1F70197D9F76BB988E8D4
:1001100093E1FA013197F1F70197D9F72F5F3F4F3C
:100120002530310559F78FEF8BB908958FEF8AB9D4
:100130008EEF8BB988E893E120E931E0F90131973E
:10014000F1F70197D9F78DEF8BB988E893E120E9B2
:1001500031E0F9013197F1F70197D9F78BEF8BB9BE
:1001600088E893E120E931E0F9013197F1F701974F
:10017000D9F787EF8BB988E893E120E931E0F901FD
:100180003197F1F70197D9F78FEE8BB988E893E1B2
:1001900020E931E0F9013197F1F70197D9F78FEDB7
:1001A0008BB988E893E120E931E0F9013197F1F763
:1001B0000197D9F78FEB8BB988E893E120E931E01B
:1001C000F9013197F1F70197D9F78FE78BB988E8F3
:1001D00093E120E931E0F9013197F1F70197D9F77F
:1001E0008FEB8BB988E893E120E931E0F901319791
:1001F000F1F70197D9F78FED8BB988E893E120E902
:1002000031E0F9013197F1F70197D9F78FEE8BB90A
:1002100088E893E120E931E0F9013197F1F701979E
:10022000D9F787EF8BB988E893E120E931E0F9014C
:100230003197F1F70197D9F78BEF8BB988E893E104
:1002400020E931E0F9013197F1F70197D9F78DEF06
:100250008BB988E893E120E931E0F9013197F1F7B2
:100260000197D9F78EEF8BB988E893E120E931E067
:10027000F9013197F1F70197D9F708950E94960097
:060280000895F894FFCF81
:00000001FF
