:100000000C9434000C943E000C943E000C943E0082
:100010000C943E000C943E000C943E000C943E0068
:100020000C943E000C943E000C943E000C943E0058
:100030000C943E000C943E000C943E000C943E0048
:100040000C943E000C943E000C943E000C943E0038
:100050000C943E000C943E000C943E000C943E0028
:100060000C943E000C943E0011241FBECFEFD8E04C
:10007000DEBFCDBF0E9445010C9448010C940000E6
:1000800020E030E07FE060EF40E951E07BB965B906
:1000900088EE93E0FA013197F1F70197D9F76BB940
:1000A00075B988EE93E0FA013197F1F70197D9F726
:1000B0002F5F3F4F2330310549F7089520E030E0AE
:1000C000B0EAAAE040E951E070E565E0BBB9A5B946
:1000D00088EE93E0FA013197F1F70197D9F77BB9F0
:1000E00065B988EE93E0FA013197F1F70197D9F7F6
:1000F0002F5F3F4F2330310549F720E030E0AFE07C
:100100006FEF40E951E070EFABB965B988EE93E06D
:10011000FA013197F1F70197D9F76BB975B988EE04
:1001200093E0FA013197F1F70197D9F72F5F3F4F2D
:100130002330310549F720E030E0B0ECA3E040E99E
:1001400051E070E36CE0BBB9A5B988EE93E0FA0129
:100150003197F1F70197D9F77BB965B988EE93E04C
:10016000FA013197F1F70197D9F72F5F3F4F23300D
:10017000310549F70895CF92DF92EF92FF920F93E6
:100180001F93CF93DF9340E050E0CC24CA9497EFC5
:10019000D92E60E971E088E0E82EF12C00E810E04B
:1001A000C1E0D0E0A0E1B0E0CBB8D5B820E030E0CD
:1001B00013C0FB013197F1F70197D9F7C701022E60
:1001C00002C0959587950A94E2F7809585B92F5FCF
:1001D0003F4F2530310519F088EE93E0EACF20E05B
:1001E00030E0C801022E02C0959587950A94E2F787
:1001F00080958BB988EE93E0FB013197F1F7019779
:10020000D9F72F5F3F4F2430310559F721E030E017
:1002100013C0FB013197F1F70197D9F7CD01022EF9
:1002200002C0880F991F0A94E2F780958BB92F5F5F
:100230003F4F2530310519F088EE93E0EACF20E0FA
:1002400030E0CE01022E02C0880F991F0A94E2F717
:10025000809585B988EE93E0FB013197F1F701971E
:10026000D9F72F5F3F4F2430310559F74F5F5F4F6C
:100270004530510509F098CFDF91CF911F910F9133
:10028000FF90EF90DF90CF90089580E090E0089588
:04029000F894FFCF10
:00000001FF
