:100000000C9434000C9449000C9449000C94490061
:100010000C9449000C9449000C9449000C9449003C
:100020000C9449000C9449000C9449000C9449002C
:100030000C9449000C9449000C9449000C9449001C
:100040000C9449000C9449000C9449000C9449000C
:100050000C9449000C9449000C9449000C944900FC
:100060000C9449000C94490011241FBECFEFD8E036
:10007000DEBFCDBF11E0A0E0B1E0E4E3F2E002C0FA
:1000800005900D92A031B107D9F70E94D2000C94CF
:1000900018010C9400008FEF85B988B920E030E09A
:1000A000A1E0B0E068E070E040E951E0CD01022E4F
:1000B00002C0880F991F0A94E2F7809585B9CB0199
:1000C000022E02C0959587950A94E2F7809588B92B
:1000D00080ED97E0FA013197F1F70197D9F72F5F9B
:1000E0003F4F2430310511F720E030E0A4E0B0E0CC
:1000F00062E070E040E951E0CD01022E02C095952A
:1001000087950A94E2F7809585B9CB01022E02C04B
:10011000880F991F0A94E2F7809588B980ED97E0DF
:10012000FA013197F1F70197D9F72F5F3F4F23304D
:10013000310511F708950F931F938C0160E170E072
:100140000E94F100FB0120E031E0E20FF31FE081AB
:10015000C80160E170E00E94F100280F391FD90149
:100160005C91852F90E04E2F429540739C0166E094
:10017000220F331F6A95E1F7422B4BB9880F991F65
:100180008873E695E6952E2F2770822B85B95695B4
:1001900056955873E695E695E6955E2B58B91F91EE
:1001A0000F9108950F931F93CF93DF9383EF8AB935
:1001B0008FE384B987B9C0E0D0E000E911E0CE0157
:1001C0000E949B0080ED97E0F8013197F1F70197CD
:1001D000D9F72196CF3FD10591F38CF3C0E0D0E061
:1001E000EECF97FB092E07260AD077FD04D00CD05E
:1001F00006D000201AF4709561957F4F0895F6F7A8
:10020000909581959F4F0895AA1BBB1B51E107C094
:10021000AA1FBB1FA617B70710F0A61BB70B881F96
:10022000991F5A95A9F780959095BC01CD01089525
:04023000F894FFCF70
:100234003F065B4F666D7D277F6F777C395E7971F2
:00000001FF
