:100000000C9434000C9451000C9451000C94510049
:100010000C9451000C9451000C9451000C9451001C
:100020000C9451000C9451000C9451000C9451000C
:100030000C9451000C9451000C9451000C945100FC
:100040000C9451000C9451000C943F070C945100F7
:100050000C9451000C9451000C9451000C945100DC
:100060000C9451000C94510011241FBECFEFD8E026
:10007000DEBFCDBF11E0A0E0B1E0E8E1F8E102C0F1
:1000800005900D92A433B107D9F711E0A4E3B1E0D4
:1000900001C01D92AD33B107E1F70E94C3070C9474
:1000A000FB070C940000DF93CF930F92CDB7DEB720
:1000B0008983E0ECF0E08081882F90E0807290707E
:1000C0000097B9F3E6ECF0E0898180830F90CF913F
:1000D000DF910895DF93CF9300D000D000D0CDB74B
:1000E000DEB79C838B837E836D831A8219820FC057
:1000F00029813A818B819C81FC01E20FF31F808171
:100100000E94530089819A8101969A83898329816B
:100110003A818D819E812817390754F326960FB6B0
:10012000F894DEBF0FBECDBFCF91DF910895DF936E
:10013000CF93CDB7DEB7C458D0400FB6F894DEBF2A
:100140000FBECDBF1A820CC08A81282F30E0CE01AD
:100150000596FC01E20FF31F10828A818F5F8A836C
:100160008A8188238CF7CE0185579F4F9C838B8390
:100170004B815C81CE010596C757DF4F28813981BD
:10018000C958D040B9010E940708CE0105960E94C7
:10019000FE0789831A820EC08A81282F30E0CE01A3
:1001A0000596FC01E20FF31F80810E9453008A81B3
:1001B0008F5F8A839A818981981770F3CC57DF4FBC
:1001C0000FB6F894DEBF0FBECDBFCF91DF9108957B
:1001D000DF93CF93CDB7DEB7A3970FB6F894DEBF0A
:1001E0000FBECDBF98A38F8F1E8E1D8EFEC0E8E27E
:1001F000F0E01082ABE2B0E0EBE2F0E080818C70E6
:100200008C9380E090E0A8ECB3E4898F9A8FAB8F59
:10021000BC8F698D7A8D8B8D9C8D20E030E04AE714
:1002200055E40E94A408DC01CB018D8B9E8BAF8B23
:10023000B88F6D897E898F89988D20E030E040E805
:100240005FE30E94230888232CF481E090E09C8BDC
:100250008B8B3FC06D897E898F89988D20E03FEF21
:100260004FE757E40E94A00818164CF5698D7A8D67
:100270008B8D9C8D20E030E040E251E40E94A40888
:10028000DC01CB01BC01CD010E942708DC01CB01C0
:100290009C8B8B8B0FC080E991E09A8B898B89892D
:1002A0009A890197F1F79A8B898B8B899C890197A1
:1002B0009C8B8B8B8B899C89009769F714C06D8907
:1002C0007E898F89988D0E942708DC01CB019C8B49
:1002D0008B8B8B899C89988B8F878F8598890197C9
:1002E000F1F7988B8F87E8E2F0E08FEF8083EBE205
:1002F000F0E08081EBE2F0E08FEF808380E090E03F
:10030000A8ECB3E48B879C87AD87BE876B857C8523
:100310008D859E8520E030E04AE755E40E94A408E0
:10032000DC01CB018F839887A987BA876F81788595
:1003300089859A8520E030E040E85FE30E94230849
:1003400088232CF481E090E09E838D833FC06F81F1
:10035000788589859A8520E03FEF4FE757E40E9432
:10036000A00818164CF56B857C858D859E8520E050
:1003700030E040E251E40E94A408DC01CB01BC0162
:10038000CD010E942708DC01CB019E838D830FC025
:1003900080E991E09C838B838B819C810197F1F7AD
:1003A0009C838B838D819E8101979E838D838D811C
:1003B0009E81009769F714C06F81788589859A8539
:1003C0000E942708DC01CB019E838D838D819E8155
:1003D0009A83898389819A810197F1F79A83898326
:1003E0008D8D9E8D01969E8F8D8F2D8D3E8D8F8D47
:1003F00098A1281739070CF4FACEA3960FB6F894F3
:10040000DEBF0FBECDBFCF91DF910895DF93CF93B5
:10041000CDB7DEB7A3970FB6F894DEBF0FBECDBF42
:1004200098A38F8F1E8E1D8EFFC0E8E2F0E080EF54
:100430008083EBE2F0E08081EBE2F0E08FEF8083FD
:1004400080E090E0A8ECB3E4898F9A8FAB8FBC8FEB
:10045000698D7A8D8B8D9C8D20E030E04AE755E4E4
:100460000E94A408DC01CB018D8B9E8BAF8BB88FD3
:100470006D897E898F89988D20E030E040E85FE3C8
:100480000E94230888232CF481E090E09C8B8B8BC6
:100490003FC06D897E898F89988D20E03FEF4FE7BF
:1004A00057E40E94A00818164CF5698D7A8D8B8D43
:1004B0009C8D20E030E040E251E40E94A408DC0181
:1004C000CB01BC01CD010E942708DC01CB019C8B34
:1004D0008B8B0FC080E991E09A8B898B89899A89EF
:1004E0000197F1F79A8B898B8B899C8901979C8B5B
:1004F0008B8B8B899C89009769F714C06D897E89E5
:100500008F89988D0E942708DC01CB019C8B8B8BF7
:100510008B899C89988B8F878F8598890197F1F7B4
:10052000988B8F87E8E2F0E08FE08083ABE2B0E069
:10053000EBE2F0E080818C708C9380E090E0A8EC9E
:10054000B3E48B879C87AD87BE876B857C858D8563
:100550009E8520E030E04AE755E40E94A408DC01D3
:10056000CB018F839887A987BA876F817885898522
:100570009A8520E030E040E85FE30E94230888236A
:100580002CF481E090E09E838D833FC06F8178855D
:1005900089859A8520E03FEF4FE757E40E94A00845
:1005A00018164CF56B857C858D859E8520E030E0A6
:1005B00040E251E40E94A408DC01CB01BC01CD0162
:1005C0000E942708DC01CB019E838D830FC080E948
:1005D00091E09C838B838B819C810197F1F79C83B5
:1005E0008B838D819E8101979E838D838D819E81DA
:1005F000009769F714C06F81788589859A850E9474
:100600002708DC01CB019E838D838D819E819A8397
:10061000898389819A810197F1F79A8389838D8DE6
:100620009E8D01969E8F8D8F2D8D3E8D8F8D98A1E5
:10063000281739070CF4F9CEA3960FB6F894DEBF4D
:100640000FBECDBFCF91DF910895DF93CF93CDB78C
:10065000DEB7C954D0400FB6F894DEBF0FBECDBF91
:10066000FE01ED5BFF4F91838083E8E2F0E08FEFC6
:100670008083EBE2F0E08081EBE2F0E08FEF8083BB
:10068000FE01EF5BFF4F1182108261C2FE01FF96F7
:10069000118210828BC0E8E2F0E081E090E00FACC4
:1006A00002C0880F991F0A94E2F78095808380E04A
:1006B00090E0A8ECB3E48DAB9EABAFABB8AF6DA947
:1006C0007EA98FA998AD20E030E04AE755E40E946A
:1006D000A408DC01CB0189AB9AABABABBCAB69A97D
:1006E0007AA98BA99CA920E030E040E85FE30E9452
:1006F000230888232CF481E090E098AB8FA73FC0BB
:1007000069A97AA98BA99CA920E03FEF4FE757E49C
:100710000E94A00818164CF56DA97EA98FA998AD66
:1007200020E030E040E251E40E94A408DC01CB016B
:10073000BC01CD010E942708DC01CB0198AB8FA73B
:100740000FC080E991E09EA78DA78DA59EA501977A
:10075000F1F79EA78DA78FA598A9019798AB8FA7B2
:100760008FA598A9009769F714C069A97AA98BA9E0
:100770009CA90E942708DC01CB0198AB8FA78FA50D
:1007800098A99CA78BA78BA59CA50197F1F79CA77F
:100790008BA7E8E2F0E08FEF8083FE01FF96808177
:1007A00091810196FE01FF9691838083FE01FF9661
:1007B00080819181863091050CF46DCF1EAE1DAE07
:1007C00090C0ABE2B0E0EBE2F0E08081282F2C702B
:1007D00080E190E00DAC02C0880F991F0A94E2F707
:1007E0008095822B8C9380E090E0A8ECB3E48FA3FB
:1007F00098A7A9A7BAA76FA178A589A59AA520E06F
:1008000030E04AE755E40E94A408DC01CB018BA349
:100810009CA3ADA3BEA36BA17CA18DA19EA120E052
:1008200030E040E85FE30E94230888232CF481E055
:1008300090E09AA389A33FC06BA17CA18DA19EA14A
:1008400020E03FEF4FE757E40E94A00818164CF550
:100850006FA178A589A59AA520E030E040E251E497
:100860000E94A408DC01CB01BC01CD010E94270835
:10087000DC01CB019AA389A30FC080E991E098A382
:100880008F8F8F8D98A10197F1F798A38F8F89A1F2
:100890009AA101979AA389A389A19AA1009769F7C0
:1008A00014C06BA17CA18DA19EA10E942708DC0130
:1008B000CB019AA389A389A19AA19E8F8D8F8D8D3B
:1008C0009E8D0197F1F79E8F8D8FEBE2F0E0808196
:1008D000EBE2F0E08FEF80838DAD9EAD01969EAF91
:1008E0008DAF8DAD9EAD181619060CF06ACF1CAEFB
:1008F0001BAE90C0ABE2B0E0EBE2F0E08081282FCD
:100900002C7080E290E00BAC02C0959587950A941C
:10091000E2F78095822B8C9380E090E0A8ECB3E422
:10092000898F9A8FAB8FBC8F698D7A8D8B8D9C8DC3
:1009300020E030E04AE755E40E94A408DC01CB0146
:100940008D8B9E8BAF8BB88F6D897E898F89988DAB
:1009500020E030E040E85FE30E94230888232CF485
:1009600081E090E09C8B8B8B3FC06D897E898F8965
:10097000988D20E03FEF4FE757E40E94A00818163B
:100980004CF5698D7A8D8B8D9C8D20E030E040E2B6
:1009900051E40E94A408DC01CB01BC01CD010E94FE
:1009A0002708DC01CB019C8B8B8B0FC080E991E089
:1009B0009A8B898B89899A890197F1F79A8B898B10
:1009C0008B899C8901979C8B8B8B8B899C89009749
:1009D00069F714C06D897E898F89988D0E942708D8
:1009E000DC01CB019C8B8B8B8B899C89988B8F87AF
:1009F0008F8598890197F1F7988B8F87EBE2F0E06C
:100A00008081EBE2F0E08FEF80838BAD9CAD0196AF
:100A10009CAF8BAF8BAD9CAD823091050CF46ACF4F
:100A20001AAE19AE83C0E8E2F0E080E290E009ACD3
:100A300002C0959587950A94E2F78095808380E0BF
:100A400090E0A8ECB3E48B879C87AD87BE876B856D
:100A50007C858D859E8520E030E04AE755E40E9444
:100A6000A408DC01CB018F839887A987BA876F819F
:100A7000788589859A8520E030E040E85FE30E9430
:100A8000230888232CF481E090E09E838D833FC06F
:100A90006F81788589859A8520E03FEF4FE757E49D
:100AA0000E94A00818164CF56B857C858D859E8567
:100AB00020E030E040E251E40E94A408DC01CB01D8
:100AC000BC01CD010E942708DC01CB019E838D83F0
:100AD0000FC080E991E09C838B838B819C8101977F
:100AE000F1F79C838B838D819E8101979E838D83FB
:100AF0008D819E81009769F714C06F817885898503
:100B00009A850E942708DC01CB019E838D838D810D
:100B10009E819A83898389819A810197F1F79A83CB
:100B2000898389AD9AAD01969AAF89AF89AD9AADA7
:100B3000863091050CF477CFDE01AF5BBF4FFE012D
:100B4000EF5BFF4F8081918101968D939C93FE0115
:100B5000EF5BFF4FDE01AD5BBF4F208131818D9197
:100B60009C911197281739070CF490CDC75BDF4F84
:100B70000FB6F894DEBF0FBECDBFCF91DF910895C1
:100B80000F931F93DF93CF93CDB7DEB766970FB662
:100B9000F894DEBF0FBECDBF9C8B8B8B1A8A198A4F
:100BA000B8C0188A1F860BE210E0EBE2F0E080810B
:100BB000482F407C8F8598892AE030E0B9010E9457
:100BC000AC0BFC01E25FFE4F8081882F90E0002497
:100BD000969587950794969587950794982F802DDD
:100BE000842BF80180838F8598890196988B8F8755
:100BF00005E210E0E5E2F0E08081482F4C7C8F8533
:100C000098892AE030E0B9010E94AC0BFC01E25F58
:100C1000FE4F8081842BF80180838F85988901960F
:100C2000988B8F8780E090E0A8ECB3E48B879C875B
:100C3000AD87BE876B857C858D859E8520E030E005
:100C40004AE755E40E94A408DC01CB018F83988712
:100C5000A987BA876F81788589859A8520E030E0F9
:100C600040E85FE30E94230888232CF481E090E0B1
:100C70009E838D833FC06F81788589859A8520E02A
:100C80003FEF4FE757E40E94A00818164CF56B851C
:100C90007C858D859E8520E030E040E251E40E9415
:100CA000A408DC01CB01BC01CD010E942708DC01B6
:100CB000CB019E838D830FC080E991E09C838B8361
:100CC0008B819C810197F1F79C838B838D819E8121
:100CD00001979E838D838D819E81009769F714C053
:100CE0006F81788589859A850E942708DC01CB0170
:100CF0009E838D838D819E819A83898389819A8148
:100D00000197F1F79A83898389899A8901969A8B49
:100D1000898B29893A898B899C89281739070CF492
:100D200040CF66960FB6F894DEBF0FBECDBFCF9111
:100D3000DF911F910F910895DF93CF9300D000D0E2
:100D4000CDB7DEB79A83898389819A8118161906EF
:100D500074F480913A0190913B01009729F488EE58
:100D600093E00E94BE06F5CF0E94DE06F2CF0F9000
:100D70000F900F900F90CF91DF910895DF93CF9355
:100D800000D0CDB7DEB79A838983A0E8B0E0E0E871
:100D9000F0E0808180648C93A1E8B0E0E1E8F0E0CD
:100DA00080818A618C93E6E8F0E089819A81918361
:100DB00080830F900F90CF91DF910895DF93CF93B1
:100DC000CDB7DEB7E0E8F0E01082E1E8F0E01082B5
:100DD000E4E8F0E011821082E6E8F0E0118210828F
:100DE000E4E2F0E08DEF8083CF91DF910895DF930F
:100DF000CF930F92CDB7DEB789838981813039F4E3
:100E000080913801909139010E94E80034C08981B5
:100E1000823039F480913801909139010E940602A4
:100E20002AC08981843039F4809138019091390148
:100E30000E94250320C08981883039F480913801CF
:100E4000909139010E94C00516C08981803139F422
:100E500080913801909139010E949C060CC000D00D
:100E6000EDB7FEB7319688E191E0918380830E94CF
:100E700097000F900F900F90CF91DF9108951F92E0
:100E80000F920FB60F9211242F933F934F935F93BE
:100E90006F937F938F939F93AF93BF93EF93FF9342
:100EA000DF93CF930F92CDB7DEB71982E6ECF0E077
:100EB000808189838091350190913601009751F4AA
:100EC0008981823039F481E090E0909336018093FB
:100ED000350144C0809135019091360181309105F2
:100EE00051F489818093370182E090E0909336013C
:100EF0008093350133C08091350190913601823065
:100F0000910571F48981882F90E090933901809345
:100F1000380183E090E090933601809335011EC044
:100F2000809135019091360183309105B9F4898122
:100F3000833021F481E080933C010CC000D0EDB7F8
:100F4000FEB7319689E291E0918380830E949700F9
:100F50000F900F90109236011092350178940F90F7
:100F6000CF91DF91FF91EF91BF91AF919F918F91C1
:100F70007F916F915F914F913F912F910F900FBE95
:100F80000F901F901895DF93CF93CDB7DEB7EAE2AD
:100F9000F0E080EF8083E7E2F0E08FEF8083E4E22F
:100FA000F0E08CEC8083F894E5ECF0E01082E4EC67
:100FB000F0E087E68083E0ECF0E01082E1ECF0E026
:100FC00088E18083A1ECB0E0E1ECF0E08081806812
:100FD0008C93E2ECF0E086E08083789480913C0191
:100FE0008823E1F3809137010E94F70610923C01BB
:100FF00010923701F3CFF8940C940A0CFC01019085
:101000000020E9F7809590958E0F9F1F0895AEE020
:10101000B0E0EDE0F8E00C94CD0B8C0186E08C8321
:101020001A8309838FEF9FE79E838D83CE010196FC
:101030000E940709EF81F885E00FF11F10822E96BC
:10104000E4E00C94E90B2FD008F481E0089557D028
:1010500088F09F5790F0B92F9927B751A0F0D1F0A1
:10106000660F771F881F991F1AF0BA95C9F712C02B
:10107000B13081F05ED0B1E008955BC0672F782F6A
:101080008827B85F39F0B93FCCF386957795679597
:10109000B395D9F73EF490958095709561957F4F03
:1010A0008F4F9F4F0895990F0008550FAA0BE0E846
:1010B000FEEF16161706E807F907C0F0121613061A
:1010C000E407F50798F0621B730B840B950B39F45A
:1010D0000A2661F0232B242B252B21F408950A26C0
:1010E00009F4A140A6958FEF811D811D089557FD3C
:1010F0009058440F551F59F05F3F71F04795880F86
:1011000097FB991F61F09F3F79F08795089512161C
:1011100013061406551FF2CF4695F1DF08C01616C8
:1011200017061806991FF1CF869571056105089479
:101130000895E894BB2766277727CB0197F9089590
:10114000B2DF08F48FEF08950BD0F5C2E6D228F095
:10115000EBD218F0952309F0D7C2DCC21124EACFF4
:10116000C6DFA0F3959FD1F3950F50E0551F629F06
:10117000F001729FBB27F00DB11D639FAA27F00DF0
:10118000B11DAA1F649F6627B00DA11D661F829F17
:101190002227B00DA11D621F739FB00DA11D621FFC
:1011A000839FA00D611D221F749F3327A00D611D19
:1011B000231F849F600D211D822F762F6A2F1124FB
:1011C0009F5750408AF0E1F088234AF0EE0FFF1F4E
:1011D000BB1F661F771F881F91505040A9F79E3F85
:1011E000510570F091C2A6CF5F3FECF3983EDCF35F
:1011F000869577956795B795F795E7959F5FC1F7C2
:10120000FE2B880F911D9695879597F90895ABE071
:10121000B0E0EDE0F9E00C94BF0B3C012B015A016A
:10122000FC0117821682838181FD03C06FEF7FEF7F
:10123000C6C19AE0892E1E010894211C311CF301BD
:101240002381F20123FD859123FF81912F018823C2
:1012500009F4B2C1853239F423FD859123FF8191D0
:101260002F01853229F490E0B3010E94FA0AE7CFFA
:10127000982FFF24EE249924FFE1FF15D0F09B3234
:1012800069F09C3228F4903259F0933291F40EC0F8
:101290009D3249F0903369F441E024C052E0F52AD0
:1012A00084E0F82A28C098E0F92A25C0E0E1FE2A67
:1012B00022C0F7FC29C0892F80538A3070F4F6FED3
:1012C00005C0989C902C1124980E15C0E89CE02C29
:1012D0001124E80EF0E2FF2A0EC09E3229F4F6FC3B
:1012E0006BC140E4F42A07C09C3619F450E8F52A93
:1012F00002C0983649F4F20123FD959123FF9191A4
:101300002F01992309F0B8CF892F8554833018F025
:101310008052833038F444E050E0A40EB51E5FE301
:1013200059830FC0933631F0933779F0933509F034
:1013300056C020C0F5018081898342E050E0A40EB0
:10134000B51E610101E010E012C0F501C080D1803E
:10135000F6FC03C06FEF7FEF02C0692D70E042E042
:1013600050E0A40EB51EC6010E94EF0A8C015FE793
:10137000F52214C0F501C080D180F6FC03C06FEFE8
:101380007FEF02C0692D70E042E050E0A40EB51E70
:10139000C6010E94E40A8C0150E8F52AF3FE07C05A
:1013A0001AC080E290E0B3010E94FA0AEA948E2DFE
:1013B00090E008171907A8F30EC0F601F7FC859115
:1013C000F7FE81916F0190E0B3010E94FA0AE110EB
:1013D000EA94015010400115110579F7EAC09436DE
:1013E00011F0993669F5F7FE08C0F50120813181C9
:1013F0004281538184E090E00AC0F50180819181AF
:101400009C01442737FD4095542F82E090E0A80EC0
:10141000B91E9FE6F92257FF09C0509540953095B7
:1014200021953F4F4F4F5F4FE0E8FE2ACA01B901B7
:10143000A1012AE030E00E94260BD82ED21840C02D
:10144000953729F41F2D1F7E2AE030E01DC01F2D87
:10145000197F9F3661F0903720F4983509F0ACC0C1
:101460000FC0903739F0983709F0A6C004C028E0C3
:1014700030E00AC0106114FD146020E130E004C0C7
:1014800014FD166020E132E017FF08C0F50160810D
:1014900071818281938144E050E008C0F501808130
:1014A0009181BC0180E090E042E050E0A40EB51EC6
:1014B000A1010E94260BD82ED2188FE7F82EF12218
:1014C000F6FE0BC05EEFF522D91438F4F4FE07C027
:1014D000F2FC05C08FEEF82202C01D2D01C0192DAF
:1014E000F4FE0DC0FE01ED0DF11D8081803319F475
:1014F00099EEF92208C01F5FF2FE05C003C08F2DD0
:10150000867809F01F5F0F2DF3FC14C0F0FE0FC0AA
:101510001E1510F09D2C0BC09D2C9E0C911A1E2D9B
:1015200006C080E290E0B3010E94FA0A1F5F1E1518
:10153000C0F304C01E1510F4E11A01C0EE2404FF2C
:101540000FC080E390E0B3010E94FA0A02FF1DC0C1
:1015500001FD03C088E790E00EC088E590E00BC075
:10156000802F867891F001FF02C08BE201C080E2FB
:10157000F7FC8DE290E0B3010E94FA0A06C080E316
:1015800090E0B3010E94FA0A9A94D914C0F3DA9455
:10159000F101ED0DF11D808190E0B3010E94FA0A86
:1015A000DD20A9F706C080E290E0B3010E94FA0AAC
:1015B000EA94EE20C1F743CEF30166817781CB0137
:1015C0002B96E2E10C94DB0BFC010590615070401E
:1015D0000110D8F7809590958E0F9F1F0895FC01FC
:1015E0006150704001900110D8F7809590958E0F52
:1015F0009F1F08950F931F93CF93DF938C01EB01EF
:101600008B8181FF1BC082FF0DC02E813F818C81A9
:101610009D812817390764F4E881F9810193F983E2
:10162000E88306C0E885F985802F0995892B31F478
:101630008E819F8101969F838E8302C00FEF1FEFE3
:10164000C801DF91CF911F910F910895FA01AA2748
:10165000283051F1203181F1E8946F936E7F6E5FF5
:101660007F4F8F4F9F4FAF4FB1E03ED0B4E03CD0A3
:10167000670F781F891F9A1FA11D680F791F8A1F86
:10168000911DA11D6A0F711D811D911DA11D20D0ED
:1016900009F468943F912AE0269F11243019305DA7
:1016A0003193DEF6CF010895462F4770405D419398
:1016B000B3E00FD0C9F7F6CF462F4F70405D4A33E5
:1016C00018F0495D31FD4052419302D0A9F7EACFAD
:1016D000B4E0A6959795879577956795BA95C9F7DC
:1016E00000976105710508959B01AC010A2E0694CF
:1016F0005795479537952795BA95C9F7620F731F88
:10170000841F951FA01D089597F99F6780E870E0DA
:1017100060E008959FEF80EC089500240A94161667
:10172000170618060906089500240A9412161306CF
:10173000140605060895092E0394000C11F488235D
:1017400052F0BB0F40F4BF2B11F460FF04C06F5F79
:101750007F4F8F4F9F4F089597FB092E07260AD082
:1017600077FD04D043D006D000201AF4709561951F
:101770007F4F0895F6F7909581959F4F08952F928A
:101780003F924F925F926F927F928F929F92AF9211
:10179000BF92CF92DF92EF92FF920F931F93CF935E
:1017A000DF93CDB7DEB7CA1BDB0B0FB6F894DEBFF5
:1017B0000FBECDBF09942A88398848885F846E841B
:1017C0007D848C849B84AA84B984C884DF80EE8065
:1017D000FD800C811B81AA81B981CE0FD11D0FB66E
:1017E000F894DEBF0FBECDBFED010895AA1BBB1B51
:1017F00051E107C0AA1FBB1FA617B70710F0A61B11
:10180000B70B881F991F5A95A9F780959095BC0131
:08181000CD010895F894FFCF0B
:10181800B801ED010B024B029302BA020F033F0617
:101828005B4F666D7D277F67496E76616C696420C2
:10183800436F6D6D616E640A005258206572726F55
:04184800720A000020
:00000001FF
