:100000000C9434000C9446000C9446000C9446006A
:100010000C9446000C9446000C9446000C94460048
:100020000C9446000C9446000C9446000C94460038
:100030000C9446000C9446000C9446000C94460028
:100040000C9455000C9446000C9446000C94460009
:100050000C9446000C9446000C9446000C94460008
:100060000C9446000C94460011241FBECFEFD8E03C
:10007000DEBFCDBF11E0A0E0B1E001C01D92A13014
:10008000B107E1F70E9485000C949A000C940000DF
:100090001BB888EB9BE020E931E0F9013197F1F7DB
:1000A0000197D9F78FEF8BB908951F920F920FB672
:1000B0000F9211242F933F934F935F936F937F93EE
:1000C0008F939F93AF93BF93EF93FF9381EB86BD85
:1000D000809100018F5F80930001883C21F40E9491
:1000E0004800109200017894FF91EF91BF91AF9179
:1000F0009F918F917F916F915F914F913F912F9140
:100100000F900FBE0F901F901895F8948FEF8AB93B
:100110008BB914BC85B5846085BD85B5816085BD0E
:1001200081EB86BD80916E00816080936E00A89AFD
:080130007894FFCFF894FFCF93
:00000001FF
