:100000000C9475000C9477010C94D7010C94920019
:100010000C9492000C9492000C9492000C94920018
:100020000C9492000C9492000C9492000C94920008
:100030000C9492000C9492000C9492000C949200F8
:100040000C9492000C9492000C9492000C949200E8
:100050000C9492000C9492000C9492000C949200D8
:100060000C9492000C94920007634236B79BD8A779
:100070001A39685618AEBAAB558C1D3CB7CC5763CD
:10008000BD6DEDFD753EF6177231BF000000803F7B
:1000900008000000BE922449123EABAAAA2ABECD97
:1000A000CCCC4C3E00000080BEABAAAAAA3E000009
:1000B0000000BF000000803F000000000008417801
:1000C000D3BB4387D1133D190E3CC3BD4282AD2B38
:1000D0003E68EC8276BED98FE1A93E4C80EFFFBE30
:1000E00001C4FF7F3F000000000011241FBECFEFBE
:1000F000D8E0DEBFCDBF11E0A0E0B1E0E6EFFBE06D
:1001000002C005900D92A031B107D9F711E0A0E12E
:10011000B1E001C01D92A831B107E1F70E9443028E
:100120000C9480020C940000EF92FF920F931F93A7
:10013000DF93CF9300D000D0CDB7DEB79C838B8305
:100140008B819C8127E030E0B9010E94D205880FA5
:10015000991FFC01E050FF4F80819181CC01A0E00C
:10016000B0E0BC01CD010E947C037B018C018B813E
:100170009C8127E030E0B9010E94D205CB01CC017F
:10018000A0E0B0E0BC01CD010E947C039B01AC016A
:1001900060E070E080E090E40E946D04DC01CB013F
:1001A0009C01AD01C801B7010E940A04DC01CB012A
:1001B000BC01CD0120E030E040E85FE30E94840212
:1001C000DC01CB01BC01CD0120E030E040E851E48E
:1001D0000E940A04DC01CB019C01AD0160E074E2E5
:1001E00084E79BE40E94E802DC01CB01BC01CD0165
:1001F0000E945003DC01CB019A838983A4E2B0E022
:10020000E4E2F0E0808182608C93A0E8B0E0E0E876
:10021000F0E0808180648C93A1E8B0E0E1E8F0E058
:1002200080818A618C93E6E8F0E089819A819183EC
:1002300080830F900F900F900F90CF91DF911F91BF
:100240000F91FF90EF900895DF93CF93CDB7DEB776
:10025000A0E8B0E0E0E8F0E080818C93A1E8B0E0B5
:10026000E1E8F0E080818C93E4E8F0E01182108214
:10027000E6E8F0E011821082E4E2F0E08DEF8083A6
:10028000CF91DF910895DF93CF9300D0CDB7DEB744
:10029000E8E2F0E080910E0190910F0127E030E05C
:1002A000B9010E94E6059C0181E090E002C0880F40
:1002B000991F2A95E2F78095808380910E01909195
:1002C0000F0127E030E0B9010E94E6058630910574
:1002D00029F4E5E2F0E08BEF808304C0E5E2F0E092
:1002E0008CE080830F900F90CF91DF9108951F9243
:1002F0000F920FB60F9211242F933F934F935F935A
:100300006F937F938F939F93AF93BF93EF93FF93DD
:10031000DF93CF93CDB7DEB7F89480910E01909123
:100320000F01019690930F0180930E0180910E01B1
:1003300090910F0190930F0180930E01E9E2F0E09C
:100340008081882F90E08C7090709093150180933D
:10035000140180911401909115018C30910521F4C4
:1003600010921701109216010E94430181E090E063
:100370009093110180931001ACE3B0E0ECE3F0E066
:10038000808181608C937894CF91DF91FF91EF9180
:10039000BF91AF919F918F917F916F915F914F919D
:1003A0003F912F910F900FBE0F901F9018951F92A5
:1003B0000F920FB60F9211242F933F934F935F9399
:1003C0006F937F938F939F93AF93BF93EF93FF931D
:1003D000DF93CF93CDB7DEB7F89480910E01909163
:1003E0000F01019790930F0180930E0180910E01F0
:1003F00090910F0190930F0180930E01E9E2F0E0DC
:100400008081882F90E08C7090709093150180937C
:10041000140180911401909115018C30910531F4F3
:1004200081E090E090931701809316010E944301B0
:1004300081E090E09093130180931201ACE3B0E06F
:10044000ECE3F0E0808182608C9380910E019091CA
:100450000F01992324F410920F0110920E01789449
:10046000CF91DF91FF91EF91BF91AF919F918F91CC
:100470007F916F915F914F913F912F910F900FBEA0
:100480000F901F901895DF93CF93CDB7DEB7F894F8
:10049000EAE2F0E083EF8083E4E2F0E08FE0808343
:1004A000E7E2F0E08FEF8083E8E2F0E08FEF808317
:1004B000EBE2F0E01082E5E2F0E08CE08083E9E638
:1004C000F0E08FE08083EDE3F0E083E08083ACE355
:1004D000B0E0ECE3F0E0808183608C93789406C018
:1004E00080910E0190910F010E949400809116015D
:1004F000909117018130910599F30E942401F6CF64
:10050000F8940C94F9055058BB27AA270ED048C17F
:1005100039D130F03ED120F031F49F3F11F41EF478
:100520002EC10EF4E095E7FB24C1E92F4AD180F3F8
:10053000BA17620773078407950718F071F49EF5E0
:1005400062C10EF4E0950B2EBA2FA02D0B01B9015C
:1005500090010C01CA01A0011124FF27591B99F039
:10056000593F50F4503E68F11A16F040A22F232F45
:10057000342F4427585FF3CF469537952795A79595
:10058000F0405395C9F77EF41F16BA0B620B730B3C
:10059000840BBAF09150A1F0FF0FBB1F661F771FAD
:1005A000881FC2F70EC0BA0F621F731F841F48F462
:1005B000879577956795B795F7959E3F08F0B3CFE8
:1005C0009395880F08F09927EE0F979587950895D2
:1005D0000CD0E6C0DED040F0D5D030F021F45F3F43
:1005E00019F0C7C0511110C1CAC0EBD098F39923BC
:1005F000C9F35523B1F3951B550BBB27AA276217E7
:100600007307840738F09F5F5F4F220F331F441F2B
:10061000AA1FA9F333D00E2E3AF0E0E830D0915063
:100620005040E695001CCAF729D0FE2F27D0660F50
:10063000771F881FBB1F261737074807AB07B0E88F
:1006400009F0BB0B802DBF01FF2793585F4F2AF0A5
:100650009E3F510568F08DC0D7C05F3FECF3983ED8
:10066000DCF3869577956795B795F7959F5FC9F702
:10067000880F911D9695879597F90895E1E0660F8B
:10068000771F881FBB1F621773078407BA0720F004
:10069000621B730B840BBA0BEE1F88F7E09508956D
:1006A00098D088F09F5790F0B92F9927B751A0F0B4
:1006B000D1F0660F771F881F991F1AF0BA95C9F7F6
:1006C00012C0B13081F09FD0B1E008959CC0672F77
:1006D000782F8827B85F39F0B93FCCF386957795A6
:1006E0006795B395D9F73EF490958095709561958F
:1006F0007F4F8F4F9F4F0895E89409C097FB3EF4BA
:1007000090958095709561957F4F8F4F9F4F99235E
:10071000A9F0F92F96E9BB279395F69587957795DC
:100720006795B795F111F8CFFAF4BB0F11F460FF9C
:100730001BC06F5F7F4F8F4F9F4F16C0882311F0F4
:1007400096E911C0772321F09EE8872F762F05C008
:10075000662371F096E8862F70E060E02AF09A95A3
:10076000660F771F881FDAF7880F9695879597F998
:10077000089597F99F6780E870E060E008959FEF23
:1007800080EC089500240A94161617061806090628
:10079000089500240A9412161306140605060895F7
:1007A000092E0394000C11F4882352F0BB0F40F47F
:1007B000BF2B11F460FF04C06F5F7F4F8F4F9F4FBF
:1007C000089557FD9058440F551F59F05F3F71F041
:1007D0004795880F97FB991F61F09F3F79F08795A8
:1007E0000895121613061406551FF2CF4695F1DF31
:1007F00008C0161617061806991FF1CF86957105C1
:10080000610508940895E894BB2766277727CB01F4
:1008100097F908950BD0C4CFB5DF28F0BADF18F0F0
:10082000952309F0A6CFABCF1124EECFCADFA0F3FA
:10083000959FD1F3950F50E0551F629FF001729F75
:10084000BB27F00DB11D639FAA27F00DB11DAA1F94
:10085000649F6627B00DA11D661F829F2227B00DE1
:10086000A11D621F739FB00DA11D621F839FA00D6C
:10087000611D221F749F3327A00D611D231F849FBC
:10088000600D211D822F762F6A2F11249F57504013
:100890008AF0E1F088234AF0EE0FFF1FBB1F661FAE
:1008A000771F881F91505040A9F79E3F510570F067
:1008B00060CFAACF5F3FECF3983EDCF38695779547
:1008C0006795B795F795E7959F5FC1F7FE2B880F62
:1008D000911D9695879597F90895FA01EE0FFF1FE0
:1008E00030962105310599F16115710561F4803863
:1008F000BFE39B0749F168949038810561F0803827
:10090000BFEF9B0741F0992342F5FF3FE105310519
:10091000210511F1E8940894E795D901AA2329F457
:10092000AB2FBE2FF85FD0F310C0FF5F70F4A69519
:10093000E0F7F73950F019F0FF3A38F49F779F93BA
:100940000CD00F9007FC905808953EF018CF60E04F
:1009500070E080E89FE308954FE79F775F934F93A0
:100960003F932F939ED02F913F914F915F9152DFF4
:1009700005C019F40EF0FDCE46CF01CF2ADFC8F333
:100980009638C0F707F80F92E8942BE33AEA48EB61
:100990005FE74EDF0F920F920F924DB75EB70F9247
:1009A000C0D0E8E6F0E016D04F915F91EF91FF9153
:1009B000E595EE1FFF1F49F0FE57E0684427EE0F54
:1009C000441FFA95E1F74195550B32D00F9007FE81
:1009D00026C00895DF93CF931F930F93FF92EF925A
:1009E000DF927B018C01689405C0DA2EEF011EDFD7
:1009F000FE01E894A5912591359145915591AEF36D
:100A0000EF0193DDFE019701A801DA9479F7DF90F9
:100A1000EF90FF900F911F91CF91DF9108959B016F
:100A2000AC0160E070E080E89FE3D2CDA2CEACC024
:100A3000D0DEE8F39923D9F3940F511DBBF3915005
:100A4000504094F059F0882332F0660F771F881FCA
:100A500091505040C1F79E3F510544F7880F911DBA
:100A60009695879597F908955F3FACF0983E9CF076
:100A7000BB27869577956795B79508F4B1609395F0
:100A8000C1F7BB0F58F711F460FFE8CF6F5F7F4FDE
:100A90008F4F9F4FE3CFB8CE0EF076C070CE6894E4
:100AA00068CE97DEC8F39923D1F3C6F3DF93CF93D3
:100AB0001F930F93FF92C92FDD2788232AF02197D8
:100AC000660F771F881FDAF720E030E040E85FEB21
:100AD0009FE3883920F0803E30F021968F7714DD37
:100AE000E0E9F0E003C010DDEDEBF0E073DF8B0137
:100AF000BE01EC01FB2E6F5771097595771F880BAE
:100B0000990BFCDD28E132E741E35FE38FDEAF2D97
:100B10009801AE01FF900F911F91CF91DF9105DDFC
:100B20003FCEFA01DC01AA0FBB1F9B01AC01BF57EE
:100B300028F422273327442750781FC0B75188F460
:100B4000AB2F0024469537952795011CA395D2F32A
:100B5000002069F0220F331F441FB395DAF30DD044
:100B6000D2CC61307105A0E88A07B94630F49B0108
:100B7000AC016627772788279078309621F020836C
:100B800031834283538308959F3F31F0915020F485
:100B9000879577956795B795880F911D9695879559
:100BA00097F90895AA1BBB1B51E107C0AA1FBB1FE1
:100BB000A617B70710F0A61BB70B881F991F5A95E9
:100BC000A9F780959095BC01CD01089597FB092E5A
:100BD00007260AD077FD04D0E5DF06D000201AF4FE
:100BE000709561957F4F0895F6F7909581959F4F89
:060BF0000895F894FFCF08
:100BF600B801ED010B024B029302BA020F03FFFF8D
:00000001FF
