:100000000C9434000C943E000C943E000C943E0082
:100010000C943E000C943E000C943E000C943E0068
:100020000C943E000C943E000C943E000C943E0058
:100030000C943E000C943E000C943E000C943E0048
:100040000C943E000C943E000C943E000C943E0038
:100050000C943E000C943E000C943E000C943E0028
:100060000C943E000C943E0011241FBECFEFD8E04C
:10007000DEBFCDBF0E9461000C9468000C940000AC
:10008000BC018FEF8AB940E050E080E991E0AFEF2A
:1000900014C01BB828E833E1FC013197F1F7215077
:1000A0003040D1F7ABB928E833E1FC013197F1F7E3
:1000B00021503040D1F74F5F5F4F461757074CF341
:1000C000089588E090E00E94400080E090E008956C
:0400D000F894FFCFD2
:00000001FF
