:100000000C9475000C9432010C949E010C94920097
:100010000C9492000C9492000C9492000C94920018
:100020000C9492000C9492000C9492000C94920008
:100030000C9492000C9492000C9492000C949200F8
:100040000C9492000C9492000C9492000C949200E8
:100050000C9492000C9492000C9492000C949200D8
:100060000C9492000C94920007634236B79BD8A779
:100070001A39685618AEBAAB558C1D3CB7CC5763CD
:10008000BD6DEDFD753EF6177231BF000000803F7B
:1000900008000000BE922449123EABAAAA2ABECD97
:1000A000CCCC4C3E00000080BEABAAAAAA3E000009
:1000B0000000BF000000803F000000000008417801
:1000C000D3BB4387D1133D190E3CC3BD4282AD2B38
:1000D0003E68EC8276BED98FE1A93E4C80EFFFBE30
:1000E00001C4FF7F3F000000000011241FBECFEFBE
:1000F000D8E0DEBFCDBF12E0A0E0B1E0E8EAF7E172
:1001000002C005900D92A631B107D9F712E0A6E121
:10011000B2E001C01D92AC31B107E1F70E941102BB
:100120000C94D20B0C940000EF92FF920F931F934C
:10013000DF93CF9300D000D000D0CDB7DEB79E8341
:100140008D83A0E8B0E0E0E8F0E0808180648C93EB
:10015000A1E8B0E0E1E8F0E080818A618C938D81D4
:100160009E8127E030E0B9010E941009CB019093F5
:100170001B0280931A028D819E8127E030E0B90135
:100180000E941009880F991FFC01E050FF4F8081E9
:10019000918182959295907F9827807F9827CC01B6
:1001A000A0E0B0E0BC01CD010E94A2067B018C0161
:1001B00080911A0290911B02AA2797FDA095BA2F51
:1001C000BC01CD010E94F0059B01AC0160E070E034
:1001D00080E090E40E945B09DC01CB019C01AD0151
:1001E000C801B7010E941A04DC01CB019C01AD01DA
:1001F00060E074E284E79BE40E941405DC01CB011B
:10020000BC01CD0120E030E040E85FE30E94BC0388
:10021000DC01CB01BC01CD010E944402DC01CB0119
:100220009A838983E4E8F0E0808191819C838B83C9
:100230002B813C8189819A812817390798F7E6E854
:10024000F0E089819A819183808326960FB6F89495
:10025000DEBF0FBECDBFCF91DF911F910F91FF90F9
:10026000EF9008951F920F920FB60F9211242F93C3
:100270003F935F936F937F938F939F93AF93BF93BE
:10028000EF93FF93DF93CF93CDB7DEB7F8948091D0
:10029000160290911702019690931702809316020E
:1002A000EBE2F0E0809116029091170227E030E037
:1002B000B9010E9410099C0181E090E002C0880F02
:1002C000991F2A95E2F782959295907F9827807FD3
:1002D000982780958083E8E2F0E080911602909163
:1002E000170227E030E0B9010E9410099C0181E06B
:1002F00090E002C0880F991F2A95E2F7959587959F
:100300009595879580958083ACE3B0E0ECE3F0E0D1
:10031000808181608C937894CF91DF91FF91EF91F0
:10032000BF91AF919F918F917F916F915F913F911D
:100330002F910F900FBE0F901F9018951F920F9244
:100340000FB60F9211242F933F935F936F937F9378
:100350008F939F93AF93BF93EF93FF93DF93CF93CD
:10036000CDB7DEB7F89480911602909117020097EE
:1003700009F444C08091160290911702019790935E
:10038000170280931602E8E2F0E080911602909145
:10039000170227E030E0B9010E9410099C0181E0BA
:1003A00090E002C0880F991F2A95E2F795958795EE
:1003B0009595879580958083EBE2F0E08091160219
:1003C0009091170227E030E0B9010E9410099C01CA
:1003D00081E090E002C0880F991F2A95E2F782958C
:1003E0009295907F9827807F982780958083ACE3B3
:1003F000B0E0ECE3F0E0808182608C937894CF9160
:10040000DF91FF91EF91BF91AF919F918F917F917C
:100410006F915F913F912F910F900FBE0F901F90A2
:100420001895DF93CF93CDB7DEB7F894EAE2F0E00A
:1004300083EF8083E4E2F0E08FE08083E7E2F0E0A6
:100440008FEF8083EBE2F0E080EE8083E5E2F0E086
:100450001082E8E2F0E08FEF8083E9E6F0E08AE0E6
:100460008083EDE3F0E083E08083ACE3B0E0ECE395
:10047000F0E0808183608C93789480911602909153
:1004800017020E949400F9CFEF92FF920F931F93EF
:100490007B018C0120E030E040E05FE40E94C00579
:1004A00088238CF0C801B70120E030E040E05FE431
:1004B0000E94BC030E944E069B01AC0120503040BC
:1004C0004040504806C0C801B7010E944E069B013B
:1004D000AC01B901CA011F910F91FF90EF900895EF
:1004E000A0E0B0E0E6E7F2E00C942409DC012B0187
:1004F000FA019C91923008F439C1EB018881823075
:1005000008F433C1943069F4843009F02FC1119696
:100510009C9111978981981709F428C1AEE0B1E048
:1005200025C1843009F421C18230A9F4923009F048
:100530001DC19A01AD0188E0EA010990AE01E9010F
:1005400009929E018150C1F7E201898111969C9127
:100550008923818308C1923009F407C112962D9036
:100560003C901397EB018A819B811496AD90BD90CE
:10057000CD90DC901797EC80FD800E811F8191015A
:10058000281B390BB90137FF04C066277727621B88
:10059000730B603271050CF061C0121613066CF516
:1005A00037014801062E04C0969487947794679487
:1005B0000A94D2F721E030E040E050E004C0220F7E
:1005C000331F441F551F6A95D2F7215030404040D9
:1005D00050402E213F214023512321153105410553
:1005E000510521F021E030E040E050E079018A013E
:1005F000E628F728082919293CC0232BD1F1260E1B
:10060000371E35014601062E04C0969487947794D0
:1006100067940A94D2F721E030E040E050E004C053
:10062000220F331F441F551F6A95D2F721503040C7
:10063000404050402A213B214C215D2121153105AC
:100640004105510521F021E030E040E050E0590142
:100650006A01A628B728C828D9280BC08215930597
:100660002CF01C01AA24BB24650103C0EE24FF2446
:10067000870111969C91D20111968C91981709F4DB
:1006800045C0992339F0A80197012A193B094C0963
:100690005D0906C0A60195012E193F09400B510BBB
:1006A00057FD08C01182338222822483358346831A
:1006B00057831DC081E08183338222828827992756
:1006C000DC01821B930BA40BB50B84839583A6835B
:1006D000B7830DC0220F331F441F551F248335835A
:1006E00046835783828193810197938382832481F8
:1006F000358146815781DA01C9010197A109B10904
:100700008F5F9F4FAF4FBF4328F30BC0918333825E
:100710002282EA0CFB1C0C1D1D1DE482F58206835F
:10072000178383E08083248135814681578157FF79
:100730001AC0C901AA2797FDA095BA2F81709070A1
:10074000A070B0705695479537952795822B932BBF
:10075000A42BB52B84839583A683B7838281938151
:10076000019693838283DF0101C0D201CD01CDB711
:10077000DEB7E2E10C944009A0E2B0E0E2ECF3E085
:100780000C94300969837A838B839C832D833E8309
:100790004F835887E9E0EE2EF12CEC0EFD1ECE01C2
:1007A0000196B7010E943F088E010F5E1F4FCE01D8
:1007B0000596B8010E943F088A8991E089278A8BB3
:1007C000C701B801AE01475E5F4F0E9470020E94F0
:1007D0006A07A096E6E00C944C09A0E2B0E0E3EFD3
:1007E000F3E00C94300969837A838B839C832D8397
:1007F0003E834F835887F9E0EF2EF12CEC0EFD1E5F
:10080000CE010196B7010E943F088E010F5E1F4F77
:10081000CE010596B8010E943F08C701B801AE019C
:10082000475E5F4F0E9470020E946A07A096E6E052
:100830000C944C09A0E2B0E0E0E2F4E00C9424094E
:1008400069837A838B839C832D833E834F83588770
:10085000CE010196BE01675F7F4F0E943F08CE0127
:100860000596BE016F5E7F4F0E943F0899859230CA
:1008700088F089898230C8F0943019F4823051F4BC
:1008800004C0843029F4923081F48EE091E0C6C037
:10089000923049F420E09A858A89981321E02A87CA
:1008A000CE010996BBC0823049F420E09A858A893E
:1008B000981321E02A8BCE014196B0C02D843E844E
:1008C0004F8458886D887E888F88988CEE24FF240A
:1008D0008701AA24BB24650140E050E060E070E09D
:1008E000E0E0F0E0C10181709070892BE9F0E60C46
:1008F000F71C081D191D9A01AB012A0D3B1D4C1D4B
:100900005D1D80E090E0A0E0B0E0E614F70408058B
:10091000190520F481E090E0A0E0B0E0BA01A9015F
:10092000480F591F6A1F7B1FAA0CBB1CCC1CDD1C67
:1009300097FE08C081E090E0A0E0B0E0A82AB92AC4
:10094000CA2ADB2A3196E032F10549F0660C771CA1
:10095000881C991C5694479437942794C3CFFA85E2
:10096000EA892B893C898B859C85280F391F2E5F4E
:100970003F4F17C0CA0181709070892B61F01695A6
:100980000795F794E79480E090E0A0E0B0E8E82ACB
:10099000F92A0A2B1B2B76956795579547952F5F5C
:1009A0003F4F77FDE7CF0CC0440F551F661F771FE1
:1009B00017FD4160EE0CFF1C001F111F215030403D
:1009C000403090E0590790E0690790E4790760F3C0
:1009D0002B8F3C8FDB01CA018F779070A070B070B5
:1009E00080349105A105B10561F447FD0AC0E11409
:1009F000F1040105110529F0405C5F4F6F4F7F4FF7
:100A000040781A8EFE1711F081E08A8F4D8F5E8F2D
:100A10006F8F78A383E0898FCE0149960E946A0781
:100A2000A096E2E10C944009A8E1B0E0EAE1F5E02B
:100A30000C942C0969837A838B839C832D833E835A
:100A40004F835887B9E0EB2EF12CEC0EFD1ECE0142
:100A50000196B7010E943F088E010F5E1F4FCE0125
:100A60000596B8010E943F082985223008F47EC00F
:100A70003989323010F4B8017CC08A859A89892777
:100A80008A87243011F0223031F4231709F06EC028
:100A90006EE071E06EC0343039F41D861E861F860C
:100AA000188A1C861B8604C0323021F484E08987B2
:100AB000B7015FC02B853C858B899C89281B390B2E
:100AC0003C872B87ED84FE840F851889AD88BE880E
:100AD000CF88D88CEA14FB040C051D0540F4EE0CFD
:100AE000FF1C001F111F215030403C872B8720E046
:100AF00030E040E050E080E090E0A0E0B0E460E072
:100B000070E0EA14FB040C051D0540F0282B392B7E
:100B10004A2B5B2BEA18FB080C091D09B695A79513
:100B200097958795EE0CFF1C001F111F6F5F7F4F7D
:100B30006F31710531F7DA01C9018F779070A070BC
:100B4000B07080349105A105B10561F427FD0AC09C
:100B5000E114F1040105110529F0205C3F4F4F4FCE
:100B60005F4F20782D873E874F87588BBE01675F88
:100B70007F4FCB010E946A076896EAE00C9448090F
:100B8000A8E1B0E0E6ECF5E00C94300969837A83E3
:100B90008B839C832D833E834F83588789E0E82E87
:100BA000F12CEC0EFD1ECE010196B7010E943F080C
:100BB0008E010F5E1F4FCE010596B8010E943F08BF
:100BC0008985823040F08989823028F0C701B801D8
:100BD0000E94B70801C08FEF6896E6E00C944C09BC
:100BE000A8E0B0E0E6EFF5E00C942D099B01AC0124
:100BF00083E08983DA01C9018827B7FD83959927A6
:100C0000AA27BB27B82E211531054105510519F436
:100C100082E089833AC08823A9F0203080E0380739
:100C200080E0480780E8580729F460E070E080E041
:100C30009FEC30C0EE24FF248701E21AF30A040B74
:100C4000150B02C079018A018EE1C82ED12CDC82FD
:100C5000CB82ED82FE820F831887C801B7010E9404
:100C60001B0701971816190684F4082E04C0EE0C11
:100C7000FF1C001F111F0A94D2F7ED82FE820F8322
:100C80001887C81AD90ADC82CB82BA82CE010196B3
:100C90000E946A072896E9E00C944909ACE0B0E0AC
:100CA000E4E5F6E00C94340969837A838B839C83B2
:100CB000CE010196BE016B5F7F4F0E943F088D8180
:100CC000823061F1823050F1843021F48E818823AA
:100CD00051F12EC02F81388537FD20C06E812F3114
:100CE00031051CF06623F9F023C08EE190E0821BF1
:100CF000930B29853A854B855C8504C056954795AD
:100D0000379527958A95D2F76623B1F0509540958F
:100D1000309521953F4F4F4F5F4F0EC020E030E0A0
:100D200040E050E009C02FEF3FEF4FEF5FE704C016
:100D300020E030E040E050E8B901CA012C96E2E042
:100D40000C945009A8E0B0E0E8EAF6E00C942C0915
:100D50007B018C01611571058105910519F482E013
:100D6000898360C083E089838EE1C82ED12CDC8228
:100D7000CB82ED82FE820F831887C801B7010E94E3
:100D80001B07FC013197F7FF3BC0222733272E1B9F
:100D90003F0B57016801022E04C0D694C794B79444
:100DA000A7940A94D2F740E050E060E070E081E060
:100DB00090E0A0E0B0E004C0880F991FAA1FBB1FFD
:100DC0002A95D2F70197A109B1098E219F21A0236D
:100DD000B1230097A105B10521F041E050E060E0AA
:100DE00070E04A295B296C297D294D835E836F83DE
:100DF00078878EE190E08E1B9F0B9C838B8312C0C3
:100E0000309781F00E2E04C0EE0CFF1C001F111F46
:100E10000A94D2F7ED82FE820F831887CE1ADF0A7A
:100E2000DC82CB821A82CE0101960E946A07289644
:100E3000EAE00C944809EF92FF920F931F937B0115
:100E40008C0180E0E81680E0F80681E0080780E089
:100E5000180788F48FEFE816F1040105110531F049
:100E600028F088E090E0A0E0B0E017C080E090E0DB
:100E7000A0E0B0E012C080E0E81680E0F80680E074
:100E8000080781E0180728F088E190E0A0E0B0E0D2
:100E900004C080E190E0A0E0B0E020E230E040E07B
:100EA00050E0281B390B4A0B5B0B04C016950795C5
:100EB000F794E7948A95D2F7F701EA5EFE4F8081B6
:100EC000281B310941095109C9011F910F91FF9058
:100ED000EF900895DF92EF92FF920F931F93FC0122
:100EE000E480F58006811781D1808081823048F4CA
:100EF00080E090E0A0E1B0E0E82AF92A0A2B1B2B61
:100F0000A5C0843009F49FC0823021F4EE24FF2470
:100F1000870105C0E114F1040105110519F4E0E0B1
:100F2000F0E096C0628173819FEF623879070CF020
:100F30005BC022E83FEF261B370B2A3131052CF02E
:100F400020E030E040E050E02AC0B801A701022EC6
:100F500004C076956795579547950A94D2F781E036
:100F600090E0A0E0B0E004C0880F991FAA1FBB1F4B
:100F70002A95D2F70197A109B1098E219F21A023BB
:100F8000B1230097A105B10521F081E090E0A0E038
:100F9000B0E09A01AB01282B392B4A2B5B2BDA01ED
:100FA000C9018F779070A070B07080349105A10551
:100FB000B10539F427FF09C0205C3F4F4F4F5F4F09
:100FC00004C0215C3F4F4F4F5F4FE0E0F0E0203026
:100FD000A0E03A07A0E04A07A0E45A0710F0E1E0D9
:100FE000F0E079018A0127C06038710564F5FB01E2
:100FF000E158FF4FD801C7018F779070A070B07093
:1010000080349105A105B10539F4E7FE0DC080E4F7
:1010100090E0A0E0B0E004C08FE390E0A0E0B0E09A
:10102000E80EF91E0A1F1B1F17FF05C0169507952E
:10103000F794E794319687E016950795F794E7942F
:101040008A95D1F705C0EE24FF248701EFEFF0E089
:101050006E2F679566276795902F9F77D794DD242D
:10106000D7948E2F8695492F462B582F5D29B7018F
:10107000CA011F910F91FF90EF90DF900895FC013E
:10108000DB01408151812281622F6F7770E0221F46
:101090002227221F9381892F880F822B282F30E04F
:1010A000991F9927991F11969C9311972115310526
:1010B000A9F5411551056105710511F482E037C0AC
:1010C00082E89FEF13969C938E9312979A01AB013F
:1010D00067E0220F331F441F551F6A95D1F783E045
:1010E0008C930DC0220F331F441F551F12968D91F4
:1010F0009C911397019713969C938E93129720308F
:1011000080E0380780E0480780E4580758F31496D9
:101110002D933D934D935C93179708952F3F310581
:1011200079F4411551056105710519F484E08C933A
:10113000089564FF03C081E08C9312C01C9210C01C
:101140002F57304013963C932E93129783E08C9345
:1011500087E0440F551F661F771F8A95D1F770648B
:1011600014964D935D936D937C93179708951F93F9
:10117000DC01FB019C91923008F447C080818230F1
:1011800008F443C0943051F411961C91843099F5C1
:101190008181682F70E0611B71093FC0843021F0AC
:1011A000923031F48230B9F18181882389F12DC0E8
:1011B00011961C9111978230F1F081811817D9F4A2
:1011C00012962D913C9113978281938182179307F8
:1011D00094F028173907BCF014968D919D910D90CD
:1011E000BC91A02D2481358146815781281739076C
:1011F0004A075B0718F4112341F00AC082179307CE
:10120000A407B50740F4112319F061E070E005C0B0
:101210006FEF7FEF02C060E070E0CB011F91089597
:10122000AA1BBB1B51E107C0AA1FBB1FA617B7070C
:1012300010F0A61BB70B881F991F5A95A9F7809528
:101240009095BC01CD0108952F923F924F925F92ED
:101250006F927F928F929F92AF92BF92CF92DF92C6
:10126000EF92FF920F931F93CF93DF93CDB7DEB72B
:10127000CA1BDB0B0FB6F894DEBF0FBECDBF0994BF
:101280002A88398848885F846E847D848C849B8416
:10129000AA84B984C884DF80EE80FD800C811B8124
:1012A000AA81B981CE0FD11D0FB6F894DEBF0FBE53
:1012B000CDBFED010895FA01EE0FFF1F3096210515
:1012C000310599F16115710561F48038BFE39B0721
:1012D00049F168949038810561F08038BFEF9B0731
:1012E00041F0992342F5FF3FE1053105210511F158
:1012F000E8940894E795D901AA2329F4AB2FBE2FCF
:10130000F85FD0F310C0FF5F70F4A695E0F7F739EF
:1013100050F019F0FF3A38F49F779F930CD00F905C
:1013200007FC905808953EF049C060E070E080E806
:101330009FE308954FE79F775F934F933F932F93DA
:10134000D0D02F913F914F915F9174DA05C019F47D
:101350000EF02EC07DC032C061D0C8F39638C0F701
:1013600007F80F92E8942BE33AEA48EB5FE738D1AD
:101370000F920F920F924DB75EB70F92F2D0E8E640
:10138000F0E01FD04F915F91EF91FF91E595EE1F37
:10139000FF1F49F0FE57E0684427EE0F441FFA95FF
:1013A000E1F74195550B64D00F9007FE58C00895A2
:1013B00097F99F6780E870E060E008959FEF80EC08
:1013C0000895DF93CF931F930F93FF92EF92DF92D5
:1013D0007B018C01689405C0DA2EEF01FFD0FE017D
:1013E000E894A5912591359145915591AEF3EF0182
:1013F00059D1FE019701A801DA9479F7DF90EF90B7
:10140000FF900F911F91CF91DF91089557FD905854
:10141000440F551F59F05F3F71F04795880F97FBB8
:10142000991F61F09F3F79F0879508951216130672
:101430001406551FF2CF4695F1DF08C016161706A1
:101440001806991FF1CF86957105610508940895D6
:10145000E894BB2766277727CB0197F908959B016E
:10146000AC0160E070E080E89FE3DECAA1CF6DC10F
:10147000D5DFE8F39923D9F3940F511DBBF39150B5
:10148000504094F059F0882332F0660F771F881F80
:1014900091505040C1F79E3F510544F7880F911D70
:1014A0009695879597F908955F3FACF0983E9CF02C
:1014B000BB27869577956795B79508F4B1609395A6
:1014C000C1F7BB0F58F711F460FFE8CF6F5F7F4F94
:1014D0008F4F9F4FE3CFBDCF0EF037C16FCF6894D2
:1014E00067CF9CDFC8F39923D1F3C6F3DF93CF9383
:1014F0001F930F93FF92C92FDD2788232AF021978E
:10150000660F771F881FDAF720E030E040E85FEBD6
:101510009FE3883920F0803E30F021968F775DD9A7
:10152000E0E9F0E003C059D9EDEBF0E04ADF8B01D0
:10153000BE01EC01FB2E6F5771097595771F880B63
:10154000990B4EDB28E132E741E35FE347D0AF2D53
:101550009801AE01FF900F911F91CF91DF91A2D022
:1015600010C1FA01DC01AA0FBB1F9B01AC01BF57E0
:1015700028F422273327442750781FC0B75188F416
:10158000AB2F0024469537952795011CA395D2F3E0
:10159000002069F0220F331F441FB395DAF30DD0FA
:1015A000EBC861307105A0E88A07B94630F49B01A9
:1015B000AC016627772788279078309621F0208322
:1015C0003183428353830895CED028F0D3D018F0CE
:1015D000952309F0EDCEF2CE11243BCF17DFA0F317
:1015E000959FD1F3950F50E0551F629FF001729FB8
:1015F000BB27F00DB11D639FAA27F00DB11DAA1FD7
:10160000649F6627B00DA11D661F829F2227B00D23
:10161000A11D621F739FB00DA11D621F839FA00DAE
:10162000611D221F749F3327A00D611D231F849FFE
:10163000600D211D822F762F6A2F11249F57504055
:101640008AF0E1F088234AF0EE0FFF1FBB1F661FF0
:10165000771F881F91505040A9F79E3F510570F0A9
:10166000A7CEF7CE5F3FECF3983EDCF386957795F7
:101670006795B795F795E7959F5FC1F7FE2B880FA4
:10168000911D9695879597F908956DD030F072D099
:1016900020F031F49F3F11F41EF490CE0EF4E0954B
:1016A000E7FB86CEE92FB2DE80F3BA176207730735
:1016B0008407950718F071F49EF5CACE0EF4E095F4
:1016C0000B2EBA2FA02D0B01B90190010C01CA01FC
:1016D000A0011124FF27591B99F0593F50F4503EA7
:1016E00068F11A16F040A22F232F342F4427585F99
:1016F000F3CF469537952795A795F0405395C9F7B1
:101700007EF41F16BA0B620B730B840BBAF0915068
:10171000A1F0FF0FBB1F661F771F881FC2F70EC007
:10172000BA0F621F731F841F48F4879577956795DA
:10173000B795F7959E3F08F0B3CF9395880F08F0C3
:101740009927EE0F9795879508959F3F31F0915017
:1017500020F4879577956795B795880F911D969595
:10176000879597F9089500240A9416161706180607
:101770000906089500240A94121613061406050695
:101780000895092E0394000C11F4882352F0BB0F26
:1017900040F4BF2B11F460FF04C06F5F7F4F8F4F89
:0817A0009F4F0895F894FFCF5C
:1017A800B801ED010B024B029302BA020F030000CD
:1017B8000000000000000001020203030303040408
:1017C80004040404040405050505050505050505C7
:1017D80005050505050506060606060606060606A7
:1017E8000606060606060606060606060606060691
:1017F8000606060606060707070707070707070777
:101808000707070707070707070707070707070760
:101818000707070707070707070707070707070750
:101828000707070707070707070707070707070740
:101838000707070707070808080808080808080826
:101848000808080808080808080808080808080810
:101858000808080808080808080808080808080800
:1018680008080808080808080808080808080808F0
:1018780008080808080808080808080808080808E0
:1018880008080808080808080808080808080808D0
:1018980008080808080808080808080808080808C0
:1018A80008080808080808080808080808080808B0
:0618B800080808080808FA
:00000001FF
